{
  "_format": "hh-sol-artifact-1",
  "contractName": "AirdropNFT",
  "sourceName": "contracts/AirdropNFT.sol",
  "abi": [
    {
      "inputs": [
        {
          "internalType": "string",
          "name": "name",
          "type": "string"
        },
        {
          "internalType": "string",
          "name": "symbol",
          "type": "string"
        },
        {
          "internalType": "bytes32",
          "name": "_merkleRoot",
          "type": "bytes32"
        }
      ],
      "stateMutability": "nonpayable",
      "type": "constructor"
    },
    {
      "inputs": [
        {
          "internalType": "address",
          "name": "sender",
          "type": "address"
        },
        {
          "internalType": "uint256",
          "name": "tokenId",
          "type": "uint256"
        },
        {
          "internalType": "address",
          "name": "owner",
          "type": "address"
        }
      ],
      "name": "ERC721IncorrectOwner",
      "type": "error"
    },
    {
      "inputs": [
        {
          "internalType": "address",
          "name": "operator",
          "type": "address"
        },
        {
          "internalType": "uint256",
          "name": "tokenId",
          "type": "uint256"
        }
      ],
      "name": "ERC721InsufficientApproval",
      "type": "error"
    },
    {
      "inputs": [
        {
          "internalType": "address",
          "name": "approver",
          "type": "address"
        }
      ],
      "name": "ERC721InvalidApprover",
      "type": "error"
    },
    {
      "inputs": [
        {
          "internalType": "address",
          "name": "operator",
          "type": "address"
        }
      ],
      "name": "ERC721InvalidOperator",
      "type": "error"
    },
    {
      "inputs": [
        {
          "internalType": "address",
          "name": "owner",
          "type": "address"
        }
      ],
      "name": "ERC721InvalidOwner",
      "type": "error"
    },
    {
      "inputs": [
        {
          "internalType": "address",
          "name": "receiver",
          "type": "address"
        }
      ],
      "name": "ERC721InvalidReceiver",
      "type": "error"
    },
    {
      "inputs": [
        {
          "internalType": "address",
          "name": "sender",
          "type": "address"
        }
      ],
      "name": "ERC721InvalidSender",
      "type": "error"
    },
    {
      "inputs": [
        {
          "internalType": "uint256",
          "name": "tokenId",
          "type": "uint256"
        }
      ],
      "name": "ERC721NonexistentToken",
      "type": "error"
    },
    {
      "inputs": [
        {
          "internalType": "address",
          "name": "owner",
          "type": "address"
        }
      ],
      "name": "OwnableInvalidOwner",
      "type": "error"
    },
    {
      "inputs": [
        {
          "internalType": "address",
          "name": "account",
          "type": "address"
        }
      ],
      "name": "OwnableUnauthorizedAccount",
      "type": "error"
    },
    {
      "anonymous": false,
      "inputs": [
        {
          "indexed": true,
          "internalType": "address",
          "name": "owner",
          "type": "address"
        },
        {
          "indexed": true,
          "internalType": "address",
          "name": "approved",
          "type": "address"
        },
        {
          "indexed": true,
          "internalType": "uint256",
          "name": "tokenId",
          "type": "uint256"
        }
      ],
      "name": "Approval",
      "type": "event"
    },
    {
      "anonymous": false,
      "inputs": [
        {
          "indexed": true,
          "internalType": "address",
          "name": "owner",
          "type": "address"
        },
        {
          "indexed": true,
          "internalType": "address",
          "name": "operator",
          "type": "address"
        },
        {
          "indexed": false,
          "internalType": "bool",
          "name": "approved",
          "type": "bool"
        }
      ],
      "name": "ApprovalForAll",
      "type": "event"
    },
    {
      "anonymous": false,
      "inputs": [
        {
          "indexed": false,
          "internalType": "bytes32",
          "name": "newMerkleRoot",
          "type": "bytes32"
        }
      ],
      "name": "MerkleRootUpdated",
      "type": "event"
    },
    {
      "anonymous": false,
      "inputs": [
        {
          "indexed": true,
          "internalType": "address",
          "name": "previousOwner",
          "type": "address"
        },
        {
          "indexed": true,
          "internalType": "address",
          "name": "newOwner",
          "type": "address"
        }
      ],
      "name": "OwnershipTransferred",
      "type": "event"
    },
    {
      "anonymous": false,
      "inputs": [
        {
          "indexed": true,
          "internalType": "address",
          "name": "from",
          "type": "address"
        },
        {
          "indexed": true,
          "internalType": "address",
          "name": "to",
          "type": "address"
        },
        {
          "indexed": true,
          "internalType": "uint256",
          "name": "tokenId",
          "type": "uint256"
        }
      ],
      "name": "Transfer",
      "type": "event"
    },
    {
      "inputs": [
        {
          "internalType": "address",
          "name": "to",
          "type": "address"
        },
        {
          "internalType": "uint256",
          "name": "tokenId",
          "type": "uint256"
        }
      ],
      "name": "approve",
      "outputs": [],
      "stateMutability": "nonpayable",
      "type": "function"
    },
    {
      "inputs": [
        {
          "internalType": "address",
          "name": "owner",
          "type": "address"
        }
      ],
      "name": "balanceOf",
      "outputs": [
        {
          "internalType": "uint256",
          "name": "",
          "type": "uint256"
        }
      ],
      "stateMutability": "view",
      "type": "function"
    },
    {
      "inputs": [
        {
          "internalType": "address",
          "name": "",
          "type": "address"
        }
      ],
      "name": "claimed",
      "outputs": [
        {
          "internalType": "bool",
          "name": "",
          "type": "bool"
        }
      ],
      "stateMutability": "view",
      "type": "function"
    },
    {
      "inputs": [
        {
          "internalType": "uint256",
          "name": "tokenId",
          "type": "uint256"
        }
      ],
      "name": "getApproved",
      "outputs": [
        {
          "internalType": "address",
          "name": "",
          "type": "address"
        }
      ],
      "stateMutability": "view",
      "type": "function"
    },
    {
      "inputs": [
        {
          "internalType": "address",
          "name": "owner",
          "type": "address"
        },
        {
          "internalType": "address",
          "name": "operator",
          "type": "address"
        }
      ],
      "name": "isApprovedForAll",
      "outputs": [
        {
          "internalType": "bool",
          "name": "",
          "type": "bool"
        }
      ],
      "stateMutability": "view",
      "type": "function"
    },
    {
      "inputs": [
        {
          "internalType": "address",
          "name": "user",
          "type": "address"
        },
        {
          "internalType": "bytes32[]",
          "name": "_merkleProof",
          "type": "bytes32[]"
        }
      ],
      "name": "isEligible",
      "outputs": [
        {
          "internalType": "bool",
          "name": "",
          "type": "bool"
        }
      ],
      "stateMutability": "view",
      "type": "function"
    },
    {
      "inputs": [],
      "name": "merkleRoot",
      "outputs": [
        {
          "internalType": "bytes32",
          "name": "",
          "type": "bytes32"
        }
      ],
      "stateMutability": "view",
      "type": "function"
    },
    {
      "inputs": [
        {
          "internalType": "bytes32[]",
          "name": "_merkleProof",
          "type": "bytes32[]"
        }
      ],
      "name": "mint",
      "outputs": [],
      "stateMutability": "nonpayable",
      "type": "function"
    },
    {
      "inputs": [],
      "name": "name",
      "outputs": [
        {
          "internalType": "string",
          "name": "",
          "type": "string"
        }
      ],
      "stateMutability": "view",
      "type": "function"
    },
    {
      "inputs": [],
      "name": "owner",
      "outputs": [
        {
          "internalType": "address",
          "name": "",
          "type": "address"
        }
      ],
      "stateMutability": "view",
      "type": "function"
    },
    {
      "inputs": [
        {
          "internalType": "uint256",
          "name": "tokenId",
          "type": "uint256"
        }
      ],
      "name": "ownerOf",
      "outputs": [
        {
          "internalType": "address",
          "name": "",
          "type": "address"
        }
      ],
      "stateMutability": "view",
      "type": "function"
    },
    {
      "inputs": [],
      "name": "renounceOwnership",
      "outputs": [],
      "stateMutability": "nonpayable",
      "type": "function"
    },
    {
      "inputs": [
        {
          "internalType": "address",
          "name": "from",
          "type": "address"
        },
        {
          "internalType": "address",
          "name": "to",
          "type": "address"
        },
        {
          "internalType": "uint256",
          "name": "tokenId",
          "type": "uint256"
        }
      ],
      "name": "safeTransferFrom",
      "outputs": [],
      "stateMutability": "nonpayable",
      "type": "function"
    },
    {
      "inputs": [
        {
          "internalType": "address",
          "name": "from",
          "type": "address"
        },
        {
          "internalType": "address",
          "name": "to",
          "type": "address"
        },
        {
          "internalType": "uint256",
          "name": "tokenId",
          "type": "uint256"
        },
        {
          "internalType": "bytes",
          "name": "data",
          "type": "bytes"
        }
      ],
      "name": "safeTransferFrom",
      "outputs": [],
      "stateMutability": "nonpayable",
      "type": "function"
    },
    {
      "inputs": [
        {
          "internalType": "address",
          "name": "operator",
          "type": "address"
        },
        {
          "internalType": "bool",
          "name": "approved",
          "type": "bool"
        }
      ],
      "name": "setApprovalForAll",
      "outputs": [],
      "stateMutability": "nonpayable",
      "type": "function"
    },
    {
      "inputs": [
        {
          "internalType": "bytes4",
          "name": "interfaceId",
          "type": "bytes4"
        }
      ],
      "name": "supportsInterface",
      "outputs": [
        {
          "internalType": "bool",
          "name": "",
          "type": "bool"
        }
      ],
      "stateMutability": "view",
      "type": "function"
    },
    {
      "inputs": [],
      "name": "symbol",
      "outputs": [
        {
          "internalType": "string",
          "name": "",
          "type": "string"
        }
      ],
      "stateMutability": "view",
      "type": "function"
    },
    {
      "inputs": [
        {
          "internalType": "uint256",
          "name": "tokenId",
          "type": "uint256"
        }
      ],
      "name": "tokenURI",
      "outputs": [
        {
          "internalType": "string",
          "name": "",
          "type": "string"
        }
      ],
      "stateMutability": "view",
      "type": "function"
    },
    {
      "inputs": [],
      "name": "totalSupply",
      "outputs": [
        {
          "internalType": "uint256",
          "name": "",
          "type": "uint256"
        }
      ],
      "stateMutability": "view",
      "type": "function"
    },
    {
      "inputs": [
        {
          "internalType": "address",
          "name": "from",
          "type": "address"
        },
        {
          "internalType": "address",
          "name": "to",
          "type": "address"
        },
        {
          "internalType": "uint256",
          "name": "tokenId",
          "type": "uint256"
        }
      ],
      "name": "transferFrom",
      "outputs": [],
      "stateMutability": "nonpayable",
      "type": "function"
    },
    {
      "inputs": [
        {
          "internalType": "address",
          "name": "newOwner",
          "type": "address"
        }
      ],
      "name": "transferOwnership",
      "outputs": [],
      "stateMutability": "nonpayable",
      "type": "function"
    },
    {
      "inputs": [
        {
          "internalType": "bytes32",
          "name": "_newMerkleRoot",
          "type": "bytes32"
        }
      ],
      "name": "updateMerkleRoot",
      "outputs": [],
      "stateMutability": "nonpayable",
      "type": "function"
    }
  ],
  "bytecode": "0x608060405234801561001057600080fd5b50604051612f84380380612f8483398181016040528101906100329190610361565b3383838160009081610044919061060d565b508060019081610054919061060d565b505050600073ffffffffffffffffffffffffffffffffffffffff168173ffffffffffffffffffffffffffffffffffffffff16036100c95760006040517f1e4fbdf70000000000000000000000000000000000000000000000000000000081526004016100c09190610720565b60405180910390fd5b6100d8816100f060201b60201c565b5080600781905550600060098190555050505061073b565b6000600660009054906101000a900473ffffffffffffffffffffffffffffffffffffffff16905081600660006101000a81548173ffffffffffffffffffffffffffffffffffffffff021916908373ffffffffffffffffffffffffffffffffffffffff1602179055508173ffffffffffffffffffffffffffffffffffffffff168173ffffffffffffffffffffffffffffffffffffffff167f8be0079c531659141344cd1fd0a4f28419497f9722a3daafe3b4186f6b6457e060405160405180910390a35050565b6000604051905090565b600080fd5b600080fd5b600080fd5b600080fd5b6000601f19601f8301169050919050565b7f4e487b7100000000000000000000000000000000000000000000000000000000600052604160045260246000fd5b61021d826101d4565b810181811067ffffffffffffffff8211171561023c5761023b6101e5565b5b80604052505050565b600061024f6101b6565b905061025b8282610214565b919050565b600067ffffffffffffffff82111561027b5761027a6101e5565b5b610284826101d4565b9050602081019050919050565b60005b838110156102af578082015181840152602081019050610294565b60008484015250505050565b60006102ce6102c984610260565b610245565b9050828152602081018484840111156102ea576102e96101cf565b5b6102f5848285610291565b509392505050565b600082601f830112610312576103116101ca565b5b81516103228482602086016102bb565b91505092915050565b6000819050919050565b61033e8161032b565b811461034957600080fd5b50565b60008151905061035b81610335565b92915050565b60008060006060848603121561037a576103796101c0565b5b600084015167ffffffffffffffff811115610398576103976101c5565b5b6103a4868287016102fd565b935050602084015167ffffffffffffffff8111156103c5576103c46101c5565b5b6103d1868287016102fd565b92505060406103e28682870161034c565b9150509250925092565b600081519050919050565b7f4e487b7100000000000000000000000000000000000000000000000000000000600052602260045260246000fd5b6000600282049050600182168061043e57607f821691505b602082108103610451576104506103f7565b5b50919050565b60008190508160005260206000209050919050565b60006020601f8301049050919050565b600082821b905092915050565b6000600883026104b97fffffffffffffffffffffffffffffffffffffffffffffffffffffffffffffffff8261047c565b6104c3868361047c565b95508019841693508086168417925050509392505050565b6000819050919050565b6000819050919050565b600061050a610505610500846104db565b6104e5565b6104db565b9050919050565b6000819050919050565b610524836104ef565b61053861053082610511565b848454610489565b825550505050565b600090565b61054d610540565b61055881848461051b565b505050565b5b8181101561057c57610571600082610545565b60018101905061055e565b5050565b601f8211156105c15761059281610457565b61059b8461046c565b810160208510156105aa578190505b6105be6105b68561046c565b83018261055d565b50505b505050565b600082821c905092915050565b60006105e4600019846008026105c6565b1980831691505092915050565b60006105fd83836105d3565b9150826002028217905092915050565b610616826103ec565b67ffffffffffffffff81111561062f5761062e6101e5565b5b6106398254610426565b610644828285610580565b600060209050601f8311600181146106775760008415610665578287015190505b61066f85826105f1565b8655506106d7565b601f19841661068586610457565b60005b828110156106ad57848901518255600182019150602085019450602081019050610688565b868310156106ca57848901516106c6601f8916826105d3565b8355505b6001600288020188555050505b505050505050565b600073ffffffffffffffffffffffffffffffffffffffff82169050919050565b600061070a826106df565b9050919050565b61071a816106ff565b82525050565b60006020820190506107356000830184610711565b92915050565b61283a8061074a6000396000f3fe608060405234801561001057600080fd5b50600436106101425760003560e01c8063715018a6116100b8578063b88d4fde1161007c578063b88d4fde1461034f578063c18b065e1461036b578063c87b56dd1461039b578063c884ef83146103cb578063e985e9c5146103fb578063f2fde38b1461042b57610142565b8063715018a6146102d15780638da5cb5b146102db57806395d89b41146102f9578063a22cb46514610317578063b77a147b1461033357610142565b806323b872dd1161010a57806323b872dd146101ff5780632eb4a7ab1461021b57806342842e0e146102395780634783f0ef146102555780636352211e1461027157806370a08231146102a157610142565b806301ffc9a71461014757806306fdde0314610177578063081812fc14610195578063095ea7b3146101c557806318160ddd146101e1575b600080fd5b610161600480360381019061015c9190611d09565b610447565b60405161016e9190611d51565b60405180910390f35b61017f610529565b60405161018c9190611dfc565b60405180910390f35b6101af60048036038101906101aa9190611e54565b6105bb565b6040516101bc9190611ec2565b60405180910390f35b6101df60048036038101906101da9190611f09565b6105d7565b005b6101e96105ed565b6040516101f69190611f58565b60405180910390f35b61021960048036038101906102149190611f73565b6105f7565b005b6102236106f9565b6040516102309190611fdf565b60405180910390f35b610253600480360381019061024e9190611f73565b6106ff565b005b61026f600480360381019061026a9190612026565b61071f565b005b61028b60048036038101906102869190611e54565b61076a565b6040516102989190611ec2565b60405180910390f35b6102bb60048036038101906102b69190612053565b61077c565b6040516102c89190611f58565b60405180910390f35b6102d9610836565b005b6102e361084a565b6040516102f09190611ec2565b60405180910390f35b610301610874565b60405161030e9190611dfc565b60405180910390f35b610331600480360381019061032c91906120ac565b610906565b005b61034d60048036038101906103489190612151565b61091c565b005b610369600480360381019061036491906122ce565b610ae8565b005b61038560048036038101906103809190612351565b610b05565b6040516103929190611d51565b60405180910390f35b6103b560048036038101906103b09190611e54565b610b89565b6040516103c29190611dfc565b60405180910390f35b6103e560048036038101906103e09190612053565b610bf2565b6040516103f29190611d51565b60405180910390f35b610415600480360381019061041091906123b1565b610c12565b6040516104229190611d51565b60405180910390f35b61044560048036038101906104409190612053565b610ca6565b005b60007f80ac58cd000000000000000000000000000000000000000000000000000000007bffffffffffffffffffffffffffffffffffffffffffffffffffffffff1916827bffffffffffffffffffffffffffffffffffffffffffffffffffffffff1916148061051257507f5b5e139f000000000000000000000000000000000000000000000000000000007bffffffffffffffffffffffffffffffffffffffffffffffffffffffff1916827bffffffffffffffffffffffffffffffffffffffffffffffffffffffff1916145b80610522575061052182610d2c565b5b9050919050565b60606000805461053890612420565b80601f016020809104026020016040519081016040528092919081815260200182805461056490612420565b80156105b15780601f10610586576101008083540402835291602001916105b1565b820191906000526020600020905b81548152906001019060200180831161059457829003601f168201915b5050505050905090565b60006105c682610d96565b506105d082610e1e565b9050919050565b6105e982826105e4610e5b565b610e63565b5050565b6000600954905090565b600073ffffffffffffffffffffffffffffffffffffffff168273ffffffffffffffffffffffffffffffffffffffff16036106695760006040517f64a0ae920000000000000000000000000000000000000000000000000000000081526004016106609190611ec2565b60405180910390fd5b600061067d8383610678610e5b565b610e75565b90508373ffffffffffffffffffffffffffffffffffffffff168173ffffffffffffffffffffffffffffffffffffffff16146106f3578382826040517f64283d7b0000000000000000000000000000000000000000000000000000000081526004016106ea93929190612451565b60405180910390fd5b50505050565b60075481565b61071a83838360405180602001604052806000815250610ae8565b505050565b61072761108f565b806007819055507f90004c04698bc3322499a575ed3752dd4abf33e0a7294c06a787a0fe01bea94160075460405161075f9190611fdf565b60405180910390a150565b600061077582610d96565b9050919050565b60008073ffffffffffffffffffffffffffffffffffffffff168273ffffffffffffffffffffffffffffffffffffffff16036107ef5760006040517f89c62b640000000000000000000000000000000000000000000000000000000081526004016107e69190611ec2565b60405180910390fd5b600360008373ffffffffffffffffffffffffffffffffffffffff1673ffffffffffffffffffffffffffffffffffffffff168152602001908152602001600020549050919050565b61083e61108f565b6108486000611116565b565b6000600660009054906101000a900473ffffffffffffffffffffffffffffffffffffffff16905090565b60606001805461088390612420565b80601f01602080910402602001604051908101604052809291908181526020018280546108af90612420565b80156108fc5780601f106108d1576101008083540402835291602001916108fc565b820191906000526020600020905b8154815290600101906020018083116108df57829003601f168201915b5050505050905090565b610918610911610e5b565b83836111dc565b5050565b600860003373ffffffffffffffffffffffffffffffffffffffff1673ffffffffffffffffffffffffffffffffffffffff16815260200190815260200160002060009054906101000a900460ff16156109a9576040517f08c379a00000000000000000000000000000000000000000000000000000000081526004016109a0906124d4565b60405180910390fd5b6000336040516020016109bc919061253c565b604051602081830303815290604052805190602001209050610a22838380806020026020016040519081016040528093929190818152602001838360200280828437600081840152601f19601f820116905080830192505050505050506007548361134b565b610a61576040517f08c379a0000000000000000000000000000000000000000000000000000000008152600401610a58906125a3565b60405180910390fd5b6001600860003373ffffffffffffffffffffffffffffffffffffffff1673ffffffffffffffffffffffffffffffffffffffff16815260200190815260200160002060006101000a81548160ff0219169083151502179055506000600954905060096000815480929190610ad3906125f2565b9190505550610ae23382611362565b50505050565b610af38484846105f7565b610aff84848484611380565b50505050565b60008084604051602001610b19919061253c565b604051602081830303815290604052805190602001209050610b7f848480806020026020016040519081016040528093929190818152602001838360200280828437600081840152601f19601f820116905080830192505050505050506007548361134b565b9150509392505050565b6060610b9482610d96565b506000610b9f611537565b90506000815111610bbf5760405180602001604052806000815250610bea565b80610bc98461154e565b604051602001610bda929190612676565b6040516020818303038152906040525b915050919050565b60086020528060005260406000206000915054906101000a900460ff1681565b6000600560008473ffffffffffffffffffffffffffffffffffffffff1673ffffffffffffffffffffffffffffffffffffffff16815260200190815260200160002060008373ffffffffffffffffffffffffffffffffffffffff1673ffffffffffffffffffffffffffffffffffffffff16815260200190815260200160002060009054906101000a900460ff16905092915050565b610cae61108f565b600073ffffffffffffffffffffffffffffffffffffffff168173ffffffffffffffffffffffffffffffffffffffff1603610d205760006040517f1e4fbdf7000000000000000000000000000000000000000000000000000000008152600401610d179190611ec2565b60405180910390fd5b610d2981611116565b50565b60007f01ffc9a7000000000000000000000000000000000000000000000000000000007bffffffffffffffffffffffffffffffffffffffffffffffffffffffff1916827bffffffffffffffffffffffffffffffffffffffffffffffffffffffff1916149050919050565b600080610da28361161c565b9050600073ffffffffffffffffffffffffffffffffffffffff168173ffffffffffffffffffffffffffffffffffffffff1603610e1557826040517f7e273289000000000000000000000000000000000000000000000000000000008152600401610e0c9190611f58565b60405180910390fd5b80915050919050565b60006004600083815260200190815260200160002060009054906101000a900473ffffffffffffffffffffffffffffffffffffffff169050919050565b600033905090565b610e708383836001611659565b505050565b600080610e818461161c565b9050600073ffffffffffffffffffffffffffffffffffffffff168373ffffffffffffffffffffffffffffffffffffffff1614610ec357610ec281848661181e565b5b600073ffffffffffffffffffffffffffffffffffffffff168173ffffffffffffffffffffffffffffffffffffffff1614610f5457610f05600085600080611659565b6001600360008373ffffffffffffffffffffffffffffffffffffffff1673ffffffffffffffffffffffffffffffffffffffff168152602001908152602001600020600082825403925050819055505b600073ffffffffffffffffffffffffffffffffffffffff168573ffffffffffffffffffffffffffffffffffffffff1614610fd7576001600360008773ffffffffffffffffffffffffffffffffffffffff1673ffffffffffffffffffffffffffffffffffffffff168152602001908152602001600020600082825401925050819055505b846002600086815260200190815260200160002060006101000a81548173ffffffffffffffffffffffffffffffffffffffff021916908373ffffffffffffffffffffffffffffffffffffffff160217905550838573ffffffffffffffffffffffffffffffffffffffff168273ffffffffffffffffffffffffffffffffffffffff167fddf252ad1be2c89b69c2b068fc378daa952ba7f163c4a11628f55a4df523b3ef60405160405180910390a4809150509392505050565b611097610e5b565b73ffffffffffffffffffffffffffffffffffffffff166110b561084a565b73ffffffffffffffffffffffffffffffffffffffff1614611114576110d8610e5b565b6040517f118cdaa700000000000000000000000000000000000000000000000000000000815260040161110b9190611ec2565b60405180910390fd5b565b6000600660009054906101000a900473ffffffffffffffffffffffffffffffffffffffff16905081600660006101000a81548173ffffffffffffffffffffffffffffffffffffffff021916908373ffffffffffffffffffffffffffffffffffffffff1602179055508173ffffffffffffffffffffffffffffffffffffffff168173ffffffffffffffffffffffffffffffffffffffff167f8be0079c531659141344cd1fd0a4f28419497f9722a3daafe3b4186f6b6457e060405160405180910390a35050565b600073ffffffffffffffffffffffffffffffffffffffff168273ffffffffffffffffffffffffffffffffffffffff160361124d57816040517f5b08ba180000000000000000000000000000000000000000000000000000000081526004016112449190611ec2565b60405180910390fd5b80600560008573ffffffffffffffffffffffffffffffffffffffff1673ffffffffffffffffffffffffffffffffffffffff16815260200190815260200160002060008473ffffffffffffffffffffffffffffffffffffffff1673ffffffffffffffffffffffffffffffffffffffff16815260200190815260200160002060006101000a81548160ff0219169083151502179055508173ffffffffffffffffffffffffffffffffffffffff168373ffffffffffffffffffffffffffffffffffffffff167f17307eab39ab6107e8899845ad3d59bd9653f200f220920489ca2b5937696c318360405161133e9190611d51565b60405180910390a3505050565b60008261135885846118e2565b1490509392505050565b61137c828260405180602001604052806000815250611932565b5050565b60008373ffffffffffffffffffffffffffffffffffffffff163b1115611531578273ffffffffffffffffffffffffffffffffffffffff1663150b7a026113c4610e5b565b8685856040518563ffffffff1660e01b81526004016113e694939291906126ef565b6020604051808303816000875af192505050801561142257506040513d601f19601f8201168201806040525081019061141f9190612750565b60015b6114a6573d8060008114611452576040519150601f19603f3d011682016040523d82523d6000602084013e611457565b606091505b50600081510361149e57836040517f64a0ae920000000000000000000000000000000000000000000000000000000081526004016114959190611ec2565b60405180910390fd5b805181602001fd5b63150b7a0260e01b7bffffffffffffffffffffffffffffffffffffffffffffffffffffffff1916817bffffffffffffffffffffffffffffffffffffffffffffffffffffffff19161461152f57836040517f64a0ae920000000000000000000000000000000000000000000000000000000081526004016115269190611ec2565b60405180910390fd5b505b50505050565b606060405180602001604052806000815250905090565b60606000600161155d8461194e565b01905060008167ffffffffffffffff81111561157c5761157b6121a3565b5b6040519080825280601f01601f1916602001820160405280156115ae5781602001600182028036833780820191505090505b509050600082602001820190505b600115611611578080600190039150507f3031323334353637383961626364656600000000000000000000000000000000600a86061a8153600a85816116055761160461277d565b5b049450600085036115bc575b819350505050919050565b60006002600083815260200190815260200160002060009054906101000a900473ffffffffffffffffffffffffffffffffffffffff169050919050565b80806116925750600073ffffffffffffffffffffffffffffffffffffffff168273ffffffffffffffffffffffffffffffffffffffff1614155b156117c65760006116a284610d96565b9050600073ffffffffffffffffffffffffffffffffffffffff168373ffffffffffffffffffffffffffffffffffffffff161415801561170d57508273ffffffffffffffffffffffffffffffffffffffff168173ffffffffffffffffffffffffffffffffffffffff1614155b8015611720575061171e8184610c12565b155b1561176257826040517fa9fbf51f0000000000000000000000000000000000000000000000000000000081526004016117599190611ec2565b60405180910390fd5b81156117c457838573ffffffffffffffffffffffffffffffffffffffff168273ffffffffffffffffffffffffffffffffffffffff167f8c5be1e5ebec7d5bd14f71427d1e84f3dd0314c0f7b2291e5b200ac8c7c3b92560405160405180910390a45b505b836004600085815260200190815260200160002060006101000a81548173ffffffffffffffffffffffffffffffffffffffff021916908373ffffffffffffffffffffffffffffffffffffffff16021790555050505050565b611829838383611aa1565b6118dd57600073ffffffffffffffffffffffffffffffffffffffff168373ffffffffffffffffffffffffffffffffffffffff160361189e57806040517f7e2732890000000000000000000000000000000000000000000000000000000081526004016118959190611f58565b60405180910390fd5b81816040517f177e802f0000000000000000000000000000000000000000000000000000000081526004016118d49291906127ac565b60405180910390fd5b505050565b60008082905060005b8451811015611927576119188286838151811061190b5761190a6127d5565b5b6020026020010151611b62565b915080806001019150506118eb565b508091505092915050565b61193c8383611b8d565b6119496000848484611380565b505050565b600080600090507a184f03e93ff9f4daa797ed6e38ed64bf6a1f01000000000000000083106119ac577a184f03e93ff9f4daa797ed6e38ed64bf6a1f01000000000000000083816119a2576119a161277d565b5b0492506040810190505b6d04ee2d6d415b85acef810000000083106119e9576d04ee2d6d415b85acef810000000083816119df576119de61277d565b5b0492506020810190505b662386f26fc100008310611a1857662386f26fc100008381611a0e57611a0d61277d565b5b0492506010810190505b6305f5e1008310611a41576305f5e1008381611a3757611a3661277d565b5b0492506008810190505b6127108310611a66576127108381611a5c57611a5b61277d565b5b0492506004810190505b60648310611a895760648381611a7f57611a7e61277d565b5b0492506002810190505b600a8310611a98576001810190505b80915050919050565b60008073ffffffffffffffffffffffffffffffffffffffff168373ffffffffffffffffffffffffffffffffffffffff1614158015611b5957508273ffffffffffffffffffffffffffffffffffffffff168473ffffffffffffffffffffffffffffffffffffffff161480611b1a5750611b198484610c12565b5b80611b5857508273ffffffffffffffffffffffffffffffffffffffff16611b4083610e1e565b73ffffffffffffffffffffffffffffffffffffffff16145b5b90509392505050565b6000818310611b7a57611b758284611c86565b611b85565b611b848383611c86565b5b905092915050565b600073ffffffffffffffffffffffffffffffffffffffff168273ffffffffffffffffffffffffffffffffffffffff1603611bff5760006040517f64a0ae92000000000000000000000000000000000000000000000000000000008152600401611bf69190611ec2565b60405180910390fd5b6000611c0d83836000610e75565b9050600073ffffffffffffffffffffffffffffffffffffffff168173ffffffffffffffffffffffffffffffffffffffff1614611c815760006040517f73c6ac6e000000000000000000000000000000000000000000000000000000008152600401611c789190611ec2565b60405180910390fd5b505050565b600082600052816020526040600020905092915050565b6000604051905090565b600080fd5b600080fd5b60007fffffffff0000000000000000000000000000000000000000000000000000000082169050919050565b611ce681611cb1565b8114611cf157600080fd5b50565b600081359050611d0381611cdd565b92915050565b600060208284031215611d1f57611d1e611ca7565b5b6000611d2d84828501611cf4565b91505092915050565b60008115159050919050565b611d4b81611d36565b82525050565b6000602082019050611d666000830184611d42565b92915050565b600081519050919050565b600082825260208201905092915050565b60005b83811015611da6578082015181840152602081019050611d8b565b60008484015250505050565b6000601f19601f8301169050919050565b6000611dce82611d6c565b611dd88185611d77565b9350611de8818560208601611d88565b611df181611db2565b840191505092915050565b60006020820190508181036000830152611e168184611dc3565b905092915050565b6000819050919050565b611e3181611e1e565b8114611e3c57600080fd5b50565b600081359050611e4e81611e28565b92915050565b600060208284031215611e6a57611e69611ca7565b5b6000611e7884828501611e3f565b91505092915050565b600073ffffffffffffffffffffffffffffffffffffffff82169050919050565b6000611eac82611e81565b9050919050565b611ebc81611ea1565b82525050565b6000602082019050611ed76000830184611eb3565b92915050565b611ee681611ea1565b8114611ef157600080fd5b50565b600081359050611f0381611edd565b92915050565b60008060408385031215611f2057611f1f611ca7565b5b6000611f2e85828601611ef4565b9250506020611f3f85828601611e3f565b9150509250929050565b611f5281611e1e565b82525050565b6000602082019050611f6d6000830184611f49565b92915050565b600080600060608486031215611f8c57611f8b611ca7565b5b6000611f9a86828701611ef4565b9350506020611fab86828701611ef4565b9250506040611fbc86828701611e3f565b9150509250925092565b6000819050919050565b611fd981611fc6565b82525050565b6000602082019050611ff46000830184611fd0565b92915050565b61200381611fc6565b811461200e57600080fd5b50565b60008135905061202081611ffa565b92915050565b60006020828403121561203c5761203b611ca7565b5b600061204a84828501612011565b91505092915050565b60006020828403121561206957612068611ca7565b5b600061207784828501611ef4565b91505092915050565b61208981611d36565b811461209457600080fd5b50565b6000813590506120a681612080565b92915050565b600080604083850312156120c3576120c2611ca7565b5b60006120d185828601611ef4565b92505060206120e285828601612097565b9150509250929050565b600080fd5b600080fd5b600080fd5b60008083601f840112612111576121106120ec565b5b8235905067ffffffffffffffff81111561212e5761212d6120f1565b5b60208301915083602082028301111561214a576121496120f6565b5b9250929050565b6000806020838503121561216857612167611ca7565b5b600083013567ffffffffffffffff81111561218657612185611cac565b5b612192858286016120fb565b92509250509250929050565b600080fd5b7f4e487b7100000000000000000000000000000000000000000000000000000000600052604160045260246000fd5b6121db82611db2565b810181811067ffffffffffffffff821117156121fa576121f96121a3565b5b80604052505050565b600061220d611c9d565b905061221982826121d2565b919050565b600067ffffffffffffffff821115612239576122386121a3565b5b61224282611db2565b9050602081019050919050565b82818337600083830152505050565b600061227161226c8461221e565b612203565b90508281526020810184848401111561228d5761228c61219e565b5b61229884828561224f565b509392505050565b600082601f8301126122b5576122b46120ec565b5b81356122c584826020860161225e565b91505092915050565b600080600080608085870312156122e8576122e7611ca7565b5b60006122f687828801611ef4565b945050602061230787828801611ef4565b935050604061231887828801611e3f565b925050606085013567ffffffffffffffff81111561233957612338611cac565b5b612345878288016122a0565b91505092959194509250565b60008060006040848603121561236a57612369611ca7565b5b600061237886828701611ef4565b935050602084013567ffffffffffffffff81111561239957612398611cac565b5b6123a5868287016120fb565b92509250509250925092565b600080604083850312156123c8576123c7611ca7565b5b60006123d685828601611ef4565b92505060206123e785828601611ef4565b9150509250929050565b7f4e487b7100000000000000000000000000000000000000000000000000000000600052602260045260246000fd5b6000600282049050600182168061243857607f821691505b60208210810361244b5761244a6123f1565b5b50919050565b60006060820190506124666000830186611eb3565b6124736020830185611f49565b6124806040830184611eb3565b949350505050565b7f416464726573732068617320616c726561647920636c61696d65640000000000600082015250565b60006124be601b83611d77565b91506124c982612488565b602082019050919050565b600060208201905081810360008301526124ed816124b1565b9050919050565b60008160601b9050919050565b600061250c826124f4565b9050919050565b600061251e82612501565b9050919050565b61253661253182611ea1565b612513565b82525050565b60006125488284612525565b60148201915081905092915050565b7f496e76616c69642070726f6f6600000000000000000000000000000000000000600082015250565b600061258d600d83611d77565b915061259882612557565b602082019050919050565b600060208201905081810360008301526125bc81612580565b9050919050565b7f4e487b7100000000000000000000000000000000000000000000000000000000600052601160045260246000fd5b60006125fd82611e1e565b91507fffffffffffffffffffffffffffffffffffffffffffffffffffffffffffffffff820361262f5761262e6125c3565b5b600182019050919050565b600081905092915050565b600061265082611d6c565b61265a818561263a565b935061266a818560208601611d88565b80840191505092915050565b60006126828285612645565b915061268e8284612645565b91508190509392505050565b600081519050919050565b600082825260208201905092915050565b60006126c18261269a565b6126cb81856126a5565b93506126db818560208601611d88565b6126e481611db2565b840191505092915050565b60006080820190506127046000830187611eb3565b6127116020830186611eb3565b61271e6040830185611f49565b818103606083015261273081846126b6565b905095945050505050565b60008151905061274a81611cdd565b92915050565b60006020828403121561276657612765611ca7565b5b60006127748482850161273b565b91505092915050565b7f4e487b7100000000000000000000000000000000000000000000000000000000600052601260045260246000fd5b60006040820190506127c16000830185611eb3565b6127ce6020830184611f49565b9392505050565b7f4e487b7100000000000000000000000000000000000000000000000000000000600052603260045260246000fdfea26469706673582212200b8e23d91f0761c0f13c7420cb900766ad4f53cf09e7b8138b902c06e8cbd79964736f6c634300081b0033",
  "linkReferences": {},
  "deployedLinkReferences": {}
}