{
    "_format": "hh-sol-artifact-1",
    "contractName": "Faucet",
    "sourceName": "src/Faucet.sol",
    "abi": [
        {
            "inputs": [
                {
                    "internalType": "address",
                    "name": "target",
                    "type": "address"
                }
            ],
            "name": "AddressEmptyCode",
            "type": "error"
        },
        {
            "inputs": [
                {
                    "internalType": "address",
                    "name": "implementation",
                    "type": "address"
                }
            ],
            "name": "ERC1967InvalidImplementation",
            "type": "error"
        },
        {
            "inputs": [],
            "name": "ERC1967NonPayable",
            "type": "error"
        },
        {
            "inputs": [],
            "name": "EnforcedPause",
            "type": "error"
        },
        {
            "inputs": [],
            "name": "ExpectedPause",
            "type": "error"
        },
        {
            "inputs": [],
            "name": "FailedCall",
            "type": "error"
        },
        {
            "inputs": [],
            "name": "InvalidInitialization",
            "type": "error"
        },
        {
            "inputs": [],
            "name": "NotInitializing",
            "type": "error"
        },
        {
            "inputs": [
                {
                    "internalType": "address",
                    "name": "owner",
                    "type": "address"
                }
            ],
            "name": "OwnableInvalidOwner",
            "type": "error"
        },
        {
            "inputs": [
                {
                    "internalType": "address",
                    "name": "account",
                    "type": "address"
                }
            ],
            "name": "OwnableUnauthorizedAccount",
            "type": "error"
        },
        {
            "inputs": [],
            "name": "ReentrancyGuardReentrantCall",
            "type": "error"
        },
        {
            "inputs": [],
            "name": "UUPSUnauthorizedCallContext",
            "type": "error"
        },
        {
            "inputs": [
                {
                    "internalType": "bytes32",
                    "name": "slot",
                    "type": "bytes32"
                }
            ],
            "name": "UUPSUnsupportedProxiableUUID",
            "type": "error"
        },
        {
            "anonymous": false,
            "inputs": [
                {
                    "indexed": true,
                    "internalType": "address",
                    "name": "sender",
                    "type": "address"
                },
                {
                    "indexed": false,
                    "internalType": "uint256",
                    "name": "newAmount",
                    "type": "uint256"
                },
                {
                    "indexed": false,
                    "internalType": "uint256",
                    "name": "timestamp",
                    "type": "uint256"
                }
            ],
            "name": "AmountChanged",
            "type": "event"
        },
        {
            "anonymous": false,
            "inputs": [
                {
                    "indexed": true,
                    "internalType": "address",
                    "name": "to",
                    "type": "address"
                },
                {
                    "indexed": false,
                    "internalType": "uint256",
                    "name": "amount",
                    "type": "uint256"
                },
                {
                    "indexed": false,
                    "internalType": "uint256",
                    "name": "timestamp",
                    "type": "uint256"
                }
            ],
            "name": "Claim",
            "type": "event"
        },
        {
            "anonymous": false,
            "inputs": [
                {
                    "indexed": true,
                    "internalType": "address",
                    "name": "sender",
                    "type": "address"
                },
                {
                    "indexed": false,
                    "internalType": "uint256",
                    "name": "newAmount",
                    "type": "uint256"
                },
                {
                    "indexed": false,
                    "internalType": "uint256",
                    "name": "timestamp",
                    "type": "uint256"
                }
            ],
            "name": "DiscordClaimAmountChanged",
            "type": "event"
        },
        {
            "anonymous": false,
            "inputs": [
                {
                    "indexed": true,
                    "internalType": "address",
                    "name": "sender",
                    "type": "address"
                },
                {
                    "indexed": false,
                    "internalType": "uint256",
                    "name": "newDuration",
                    "type": "uint256"
                },
                {
                    "indexed": false,
                    "internalType": "uint256",
                    "name": "timestamp",
                    "type": "uint256"
                }
            ],
            "name": "DurationChanged",
            "type": "event"
        },
        {
            "anonymous": false,
            "inputs": [
                {
                    "indexed": true,
                    "internalType": "address",
                    "name": "sender",
                    "type": "address"
                },
                {
                    "indexed": false,
                    "internalType": "uint256",
                    "name": "amount",
                    "type": "uint256"
                },
                {
                    "indexed": false,
                    "internalType": "uint256",
                    "name": "timestamp",
                    "type": "uint256"
                }
            ],
            "name": "Funded",
            "type": "event"
        },
        {
            "anonymous": false,
            "inputs": [
                {
                    "indexed": false,
                    "internalType": "uint64",
                    "name": "version",
                    "type": "uint64"
                }
            ],
            "name": "Initialized",
            "type": "event"
        },
        {
            "anonymous": false,
            "inputs": [
                {
                    "indexed": true,
                    "internalType": "address",
                    "name": "sender",
                    "type": "address"
                },
                {
                    "indexed": false,
                    "internalType": "address",
                    "name": "newAddress",
                    "type": "address"
                },
                {
                    "indexed": false,
                    "internalType": "uint256",
                    "name": "timestamp",
                    "type": "uint256"
                }
            ],
            "name": "NFTChanged",
            "type": "event"
        },
        {
            "anonymous": false,
            "inputs": [
                {
                    "indexed": true,
                    "internalType": "address",
                    "name": "previousOwner",
                    "type": "address"
                },
                {
                    "indexed": true,
                    "internalType": "address",
                    "name": "newOwner",
                    "type": "address"
                }
            ],
            "name": "OwnershipTransferred",
            "type": "event"
        },
        {
            "anonymous": false,
            "inputs": [
                {
                    "indexed": false,
                    "internalType": "address",
                    "name": "account",
                    "type": "address"
                }
            ],
            "name": "Paused",
            "type": "event"
        },
        {
            "anonymous": false,
            "inputs": [
                {
                    "indexed": false,
                    "internalType": "address",
                    "name": "account",
                    "type": "address"
                }
            ],
            "name": "Unpaused",
            "type": "event"
        },
        {
            "anonymous": false,
            "inputs": [
                {
                    "indexed": true,
                    "internalType": "address",
                    "name": "implementation",
                    "type": "address"
                }
            ],
            "name": "Upgraded",
            "type": "event"
        },
        {
            "inputs": [],
            "name": "UPGRADE_INTERFACE_VERSION",
            "outputs": [
                {
                    "internalType": "string",
                    "name": "",
                    "type": "string"
                }
            ],
            "stateMutability": "view",
            "type": "function"
        },
        {
            "inputs": [
                {
                    "internalType": "address",
                    "name": "_address",
                    "type": "address"
                }
            ],
            "name": "addPermissionedAddress",
            "outputs": [],
            "stateMutability": "nonpayable",
            "type": "function"
        },
        {
            "inputs": [],
            "name": "balance",
            "outputs": [
                {
                    "internalType": "uint256",
                    "name": "",
                    "type": "uint256"
                }
            ],
            "stateMutability": "view",
            "type": "function"
        },
        {
            "inputs": [
                {
                    "internalType": "address payable",
                    "name": "to",
                    "type": "address"
                },
                {
                    "internalType": "bool",
                    "name": "isDiscordClaim",
                    "type": "bool"
                },
                {
                    "internalType": "bool",
                    "name": "skipCooldown",
                    "type": "bool"
                }
            ],
            "name": "claim",
            "outputs": [
                {
                    "internalType": "bool",
                    "name": "",
                    "type": "bool"
                }
            ],
            "stateMutability": "nonpayable",
            "type": "function"
        },
        {
            "inputs": [],
            "name": "claimAmount",
            "outputs": [
                {
                    "internalType": "uint256",
                    "name": "",
                    "type": "uint256"
                }
            ],
            "stateMutability": "view",
            "type": "function"
        },
        {
            "inputs": [],
            "name": "claimAmountUSDC",
            "outputs": [
                {
                    "internalType": "uint256",
                    "name": "",
                    "type": "uint256"
                }
            ],
            "stateMutability": "view",
            "type": "function"
        },
        {
            "inputs": [],
            "name": "claimAmountUSDT",
            "outputs": [
                {
                    "internalType": "uint256",
                    "name": "",
                    "type": "uint256"
                }
            ],
            "stateMutability": "view",
            "type": "function"
        },
        {
            "inputs": [
                {
                    "internalType": "address",
                    "name": "to",
                    "type": "address"
                }
            ],
            "name": "claimUSDC",
            "outputs": [
                {
                    "internalType": "bool",
                    "name": "",
                    "type": "bool"
                }
            ],
            "stateMutability": "nonpayable",
            "type": "function"
        },
        {
            "inputs": [
                {
                    "internalType": "address",
                    "name": "to",
                    "type": "address"
                }
            ],
            "name": "claimUSDT",
            "outputs": [
                {
                    "internalType": "bool",
                    "name": "",
                    "type": "bool"
                }
            ],
            "stateMutability": "nonpayable",
            "type": "function"
        },
        {
            "inputs": [],
            "name": "cooldownDuration",
            "outputs": [
                {
                    "internalType": "uint256",
                    "name": "",
                    "type": "uint256"
                }
            ],
            "stateMutability": "view",
            "type": "function"
        },
        {
            "inputs": [],
            "name": "discordClaimAmount",
            "outputs": [
                {
                    "internalType": "uint256",
                    "name": "",
                    "type": "uint256"
                }
            ],
            "stateMutability": "view",
            "type": "function"
        },
        {
            "inputs": [],
            "name": "fundFaucet",
            "outputs": [
                {
                    "internalType": "uint256",
                    "name": "",
                    "type": "uint256"
                }
            ],
            "stateMutability": "payable",
            "type": "function"
        },
        {
            "inputs": [
                {
                    "internalType": "address",
                    "name": "_whitelistNFTAddress",
                    "type": "address"
                },
                {
                    "internalType": "uint256",
                    "name": "_claimAmount",
                    "type": "uint256"
                },
                {
                    "internalType": "uint256",
                    "name": "_cooldownDuration",
                    "type": "uint256"
                }
            ],
            "name": "initialize",
            "outputs": [],
            "stateMutability": "nonpayable",
            "type": "function"
        },
        {
            "inputs": [
                {
                    "internalType": "address",
                    "name": "",
                    "type": "address"
                }
            ],
            "name": "lastClaimTimesUSDC",
            "outputs": [
                {
                    "internalType": "uint256",
                    "name": "",
                    "type": "uint256"
                }
            ],
            "stateMutability": "view",
            "type": "function"
        },
        {
            "inputs": [
                {
                    "internalType": "address",
                    "name": "",
                    "type": "address"
                }
            ],
            "name": "lastClaimTimesUSDT",
            "outputs": [
                {
                    "internalType": "uint256",
                    "name": "",
                    "type": "uint256"
                }
            ],
            "stateMutability": "view",
            "type": "function"
        },
        {
            "inputs": [
                {
                    "internalType": "address",
                    "name": "account",
                    "type": "address"
                }
            ],
            "name": "lastClaimed",
            "outputs": [
                {
                    "internalType": "uint256",
                    "name": "",
                    "type": "uint256"
                }
            ],
            "stateMutability": "view",
            "type": "function"
        },
        {
            "inputs": [
                {
                    "internalType": "address",
                    "name": "account",
                    "type": "address"
                }
            ],
            "name": "lastClaimedUSDC",
            "outputs": [
                {
                    "internalType": "uint256",
                    "name": "",
                    "type": "uint256"
                }
            ],
            "stateMutability": "view",
            "type": "function"
        },
        {
            "inputs": [
                {
                    "internalType": "address",
                    "name": "account",
                    "type": "address"
                }
            ],
            "name": "lastClaimedUSDT",
            "outputs": [
                {
                    "internalType": "uint256",
                    "name": "",
                    "type": "uint256"
                }
            ],
            "stateMutability": "view",
            "type": "function"
        },
        {
            "inputs": [],
            "name": "owner",
            "outputs": [
                {
                    "internalType": "address",
                    "name": "",
                    "type": "address"
                }
            ],
            "stateMutability": "view",
            "type": "function"
        },
        {
            "inputs": [],
            "name": "paused",
            "outputs": [
                {
                    "internalType": "bool",
                    "name": "",
                    "type": "bool"
                }
            ],
            "stateMutability": "view",
            "type": "function"
        },
        {
            "inputs": [],
            "name": "proxiableUUID",
            "outputs": [
                {
                    "internalType": "bytes32",
                    "name": "",
                    "type": "bytes32"
                }
            ],
            "stateMutability": "view",
            "type": "function"
        },
        {
            "inputs": [
                {
                    "internalType": "address",
                    "name": "_address",
                    "type": "address"
                }
            ],
            "name": "removePermissionedAddress",
            "outputs": [],
            "stateMutability": "nonpayable",
            "type": "function"
        },
        {
            "inputs": [],
            "name": "renounceOwnership",
            "outputs": [],
            "stateMutability": "nonpayable",
            "type": "function"
        },
        {
            "inputs": [
                {
                    "internalType": "uint256",
                    "name": "amount",
                    "type": "uint256"
                }
            ],
            "name": "setAmount",
            "outputs": [
                {
                    "internalType": "bool",
                    "name": "",
                    "type": "bool"
                }
            ],
            "stateMutability": "nonpayable",
            "type": "function"
        },
        {
            "inputs": [
                {
                    "internalType": "uint256",
                    "name": "amount",
                    "type": "uint256"
                }
            ],
            "name": "setClaimAmountUSDC",
            "outputs": [],
            "stateMutability": "nonpayable",
            "type": "function"
        },
        {
            "inputs": [
                {
                    "internalType": "uint256",
                    "name": "amount",
                    "type": "uint256"
                }
            ],
            "name": "setClaimAmountUSDT",
            "outputs": [],
            "stateMutability": "nonpayable",
            "type": "function"
        },
        {
            "inputs": [
                {
                    "internalType": "uint256",
                    "name": "amount",
                    "type": "uint256"
                }
            ],
            "name": "setDiscordClaimAmount",
            "outputs": [
                {
                    "internalType": "bool",
                    "name": "",
                    "type": "bool"
                }
            ],
            "stateMutability": "nonpayable",
            "type": "function"
        },
        {
            "inputs": [
                {
                    "internalType": "uint256",
                    "name": "duration",
                    "type": "uint256"
                }
            ],
            "name": "setDuration",
            "outputs": [
                {
                    "internalType": "bool",
                    "name": "",
                    "type": "bool"
                }
            ],
            "stateMutability": "nonpayable",
            "type": "function"
        },
        {
            "inputs": [
                {
                    "internalType": "address",
                    "name": "newAddress",
                    "type": "address"
                }
            ],
            "name": "setNFTAddress",
            "outputs": [
                {
                    "internalType": "bool",
                    "name": "",
                    "type": "bool"
                }
            ],
            "stateMutability": "nonpayable",
            "type": "function"
        },
        {
            "inputs": [
                {
                    "internalType": "address",
                    "name": "_usdcAddress",
                    "type": "address"
                }
            ],
            "name": "setUsdcAddress",
            "outputs": [],
            "stateMutability": "nonpayable",
            "type": "function"
        },
        {
            "inputs": [
                {
                    "internalType": "address",
                    "name": "_usdtAddress",
                    "type": "address"
                }
            ],
            "name": "setUsdtAddress",
            "outputs": [],
            "stateMutability": "nonpayable",
            "type": "function"
        },
        {
            "inputs": [],
            "name": "stablecoinUSDCAddress",
            "outputs": [
                {
                    "internalType": "contract IERC20",
                    "name": "",
                    "type": "address"
                }
            ],
            "stateMutability": "view",
            "type": "function"
        },
        {
            "inputs": [],
            "name": "stablecoinUSDTAddress",
            "outputs": [
                {
                    "internalType": "contract IERC20",
                    "name": "",
                    "type": "address"
                }
            ],
            "stateMutability": "view",
            "type": "function"
        },
        {
            "inputs": [
                {
                    "internalType": "address",
                    "name": "newOwner",
                    "type": "address"
                }
            ],
            "name": "transferOwnership",
            "outputs": [],
            "stateMutability": "nonpayable",
            "type": "function"
        },
        {
            "inputs": [
                {
                    "internalType": "address",
                    "name": "newImplementation",
                    "type": "address"
                },
                {
                    "internalType": "bytes",
                    "name": "data",
                    "type": "bytes"
                }
            ],
            "name": "upgradeToAndCall",
            "outputs": [],
            "stateMutability": "payable",
            "type": "function"
        },
        {
            "inputs": [],
            "name": "whitelistNFTAddress",
            "outputs": [
                {
                    "internalType": "address",
                    "name": "",
                    "type": "address"
                }
            ],
            "stateMutability": "view",
            "type": "function"
        },
        {
            "inputs": [
                {
                    "internalType": "uint256",
                    "name": "amount",
                    "type": "uint256"
                }
            ],
            "name": "withdraw",
            "outputs": [],
            "stateMutability": "nonpayable",
            "type": "function"
        },
        {
            "stateMutability": "payable",
            "type": "receive"
        }
    ],
    "bytecode": "0x60a06040523073ffffffffffffffffffffffffffffffffffffffff1660809073ffffffffffffffffffffffffffffffffffffffff16815250348015610042575f80fd5b50608051612dbb6100695f395f8181611b6a01528181611bbf0152611d790152612dbb5ff3fe60806040526004361061021d575f3560e01c80636907ab3711610122578063ad3cb1cc116100aa578063cc7238761161006e578063cc723876146107e0578063d38bcdee1461081c578063d66a018914610844578063f2fde38b1461086e578063f6be71d11461089657610224565b8063ad3cb1cc146106fe578063b1e32c7914610728578063b69ef8a814610752578063c12da1381461077c578063cb1e70e7146107b857610224565b80637a1ac61e116100f15780637a1ac61e14610630578063830953ab146106585780638da5cb5b1461068257806392c22d82146106ac578063aab85ee2146106d457610224565b80636907ab371461058457806369d03738146105c05780636a211d6a146105fc578063715018a61461061a57610224565b8063271f88b4116101a55780634f1ef286116101745780634f1ef286146104c257806352d1902d146104de578063585f5429146105085780635c975abb14610532578063670d87521461055c57610224565b8063271f88b4146103f85780632e1a7d4d14610434578063352693151461045c578063428526101461048657610224565b806319e933b7116101ec57806319e933b71461030457806323fc3c2a1461032c578063241f2f9e14610356578063245f73b8146103805780632703a394146103bc57610224565b8063013eba921461022857806302e558df146102645780630cb46b75146102a057806317b79063146102c857610224565b3661022457005b5f80fd5b348015610233575f80fd5b5061024e60048036038101906102499190612439565b6108d2565b60405161025b919061247c565b60405180910390f35b34801561026f575f80fd5b5061028a60048036038101906102859190612439565b610918565b604051610297919061247c565b60405180910390f35b3480156102ab575f80fd5b506102c660048036038101906102c19190612439565b61092d565b005b3480156102d3575f80fd5b506102ee60048036038101906102e99190612439565b610978565b6040516102fb919061247c565b60405180910390f35b34801561030f575f80fd5b5061032a60048036038101906103259190612439565b6109be565b005b348015610337575f80fd5b50610340610a1e565b60405161034d91906124f0565b60405180910390f35b348015610361575f80fd5b5061036a610a43565b60405161037791906124f0565b60405180910390f35b34801561038b575f80fd5b506103a660048036038101906103a19190612439565b610a68565b6040516103b39190612523565b60405180910390f35b3480156103c7575f80fd5b506103e260048036038101906103dd9190612566565b610d12565b6040516103ef9190612523565b60405180910390f35b348015610403575f80fd5b5061041e60048036038101906104199190612566565b610d7b565b60405161042b9190612523565b60405180910390f35b34801561043f575f80fd5b5061045a60048036038101906104559190612566565b610de4565b005b348015610467575f80fd5b50610470610edb565b60405161047d919061247c565b60405180910390f35b348015610491575f80fd5b506104ac60048036038101906104a79190612439565b610ee1565b6040516104b99190612523565b60405180910390f35b6104dc60048036038101906104d791906126cd565b61118b565b005b3480156104e9575f80fd5b506104f26111aa565b6040516104ff919061273f565b60405180910390f35b348015610513575f80fd5b5061051c6111db565b604051610529919061247c565b60405180910390f35b34801561053d575f80fd5b506105466111e1565b6040516105539190612523565b60405180910390f35b348015610567575f80fd5b50610582600480360381019061057d9190612439565b611203565b005b34801561058f575f80fd5b506105aa60048036038101906105a591906127bd565b611262565b6040516105b79190612523565b60405180910390f35b3480156105cb575f80fd5b506105e660048036038101906105e19190612439565b611532565b6040516105f39190612523565b60405180910390f35b6106046115d3565b604051610611919061247c565b60405180910390f35b348015610625575f80fd5b5061062e61162a565b005b34801561063b575f80fd5b506106566004803603810190610651919061280d565b61163d565b005b348015610663575f80fd5b5061066c611815565b604051610679919061247c565b60405180910390f35b34801561068d575f80fd5b5061069661181b565b6040516106a3919061286c565b60405180910390f35b3480156106b7575f80fd5b506106d260048036038101906106cd9190612566565b611850565b005b3480156106df575f80fd5b506106e8611862565b6040516106f5919061247c565b60405180910390f35b348015610709575f80fd5b50610712611868565b60405161071f91906128ff565b60405180910390f35b348015610733575f80fd5b5061073c6118a1565b604051610749919061247c565b60405180910390f35b34801561075d575f80fd5b506107666118a7565b604051610773919061247c565b60405180910390f35b348015610787575f80fd5b506107a2600480360381019061079d9190612439565b6118ae565b6040516107af919061247c565b60405180910390f35b3480156107c3575f80fd5b506107de60048036038101906107d99190612566565b6118c3565b005b3480156107eb575f80fd5b5061080660048036038101906108019190612439565b6118d5565b604051610813919061247c565b60405180910390f35b348015610827575f80fd5b50610842600480360381019061083d9190612439565b61191b565b005b34801561084f575f80fd5b50610858611966565b604051610865919061286c565b60405180910390f35b348015610879575f80fd5b50610894600480360381019061088f9190612439565b611989565b005b3480156108a1575f80fd5b506108bc60048036038101906108b79190612566565b611a0d565b6040516108c99190612523565b60405180910390f35b5f60035f8373ffffffffffffffffffffffffffffffffffffffff1673ffffffffffffffffffffffffffffffffffffffff1681526020019081526020015f20549050919050565b6007602052805f5260405f205f915090505481565b610935611a76565b80600b5f6101000a81548173ffffffffffffffffffffffffffffffffffffffff021916908373ffffffffffffffffffffffffffffffffffffffff16021790555050565b5f60075f8373ffffffffffffffffffffffffffffffffffffffff1673ffffffffffffffffffffffffffffffffffffffff1681526020019081526020015f20549050919050565b6109c6611a76565b600160045f8373ffffffffffffffffffffffffffffffffffffffff1673ffffffffffffffffffffffffffffffffffffffff1681526020019081526020015f205f6101000a81548160ff02191690831515021790555050565b600b5f9054906101000a900473ffffffffffffffffffffffffffffffffffffffff1681565b600a5f9054906101000a900473ffffffffffffffffffffffffffffffffffffffff1681565b5f610a71611afd565b60045f3373ffffffffffffffffffffffffffffffffffffffff1673ffffffffffffffffffffffffffffffffffffffff1681526020019081526020015f205f9054906101000a900460ff16610afa576040517f08c379a0000000000000000000000000000000000000000000000000000000008152600401610af19061298f565b60405180910390fd5b5f60095f8473ffffffffffffffffffffffffffffffffffffffff1673ffffffffffffffffffffffffffffffffffffffff1681526020019081526020015f20541480610b8f575060025460095f8473ffffffffffffffffffffffffffffffffffffffff1673ffffffffffffffffffffffffffffffffffffffff1681526020019081526020015f2054610b8b91906129da565b4210155b610bce576040517f08c379a0000000000000000000000000000000000000000000000000000000008152600401610bc590612a57565b60405180910390fd5b4260095f8473ffffffffffffffffffffffffffffffffffffffff1673ffffffffffffffffffffffffffffffffffffffff1681526020019081526020015f2081905550600b5f9054906101000a900473ffffffffffffffffffffffffffffffffffffffff1673ffffffffffffffffffffffffffffffffffffffff1663a9059cbb836008546040518363ffffffff1660e01b8152600401610c6e929190612a75565b6020604051808303815f875af1158015610c8a573d5f803e3d5ffd5b505050506040513d601f19601f82011682018060405250810190610cae9190612ab0565b508173ffffffffffffffffffffffffffffffffffffffff167f34fcbac0073d7c3d388e51312faf357774904998eeb8fca628b9e6f65ee1cbf760085442604051610cf9929190612adb565b60405180910390a260019050610d0d611b51565b919050565b5f610d1b611a76565b816005819055503373ffffffffffffffffffffffffffffffffffffffff167ffd42db70c002342497e7a23dfa4f940647c1b5a86aee3dbd1ce3a4fd903b8d1b8342604051610d6a929190612adb565b60405180910390a260019050919050565b5f610d84611a76565b816001819055503373ffffffffffffffffffffffffffffffffffffffff167f0cf6bba85b21bad480f1f5fbce0487630b8a2a2470ed912b8a0d796966a26abe8342604051610dd3929190612adb565b60405180910390a260019050919050565b610dec611a76565b47811115610e2f576040517f08c379a0000000000000000000000000000000000000000000000000000000008152600401610e2690612b4c565b60405180910390fd5b5f3373ffffffffffffffffffffffffffffffffffffffff1682604051610e5490612b97565b5f6040518083038185875af1925050503d805f8114610e8e576040519150601f19603f3d011682016040523d82523d5f602084013e610e93565b606091505b5050905080610ed7576040517f08c379a0000000000000000000000000000000000000000000000000000000008152600401610ece90612bf5565b60405180910390fd5b5050565b60025481565b5f610eea611afd565b60045f3373ffffffffffffffffffffffffffffffffffffffff1673ffffffffffffffffffffffffffffffffffffffff1681526020019081526020015f205f9054906101000a900460ff16610f73576040517f08c379a0000000000000000000000000000000000000000000000000000000008152600401610f6a9061298f565b60405180910390fd5b5f60075f8473ffffffffffffffffffffffffffffffffffffffff1673ffffffffffffffffffffffffffffffffffffffff1681526020019081526020015f20541480611008575060025460075f8473ffffffffffffffffffffffffffffffffffffffff1673ffffffffffffffffffffffffffffffffffffffff1681526020019081526020015f205461100491906129da565b4210155b611047576040517f08c379a000000000000000000000000000000000000000000000000000000000815260040161103e90612a57565b60405180910390fd5b4260075f8473ffffffffffffffffffffffffffffffffffffffff1673ffffffffffffffffffffffffffffffffffffffff1681526020019081526020015f2081905550600a5f9054906101000a900473ffffffffffffffffffffffffffffffffffffffff1673ffffffffffffffffffffffffffffffffffffffff1663a9059cbb836006546040518363ffffffff1660e01b81526004016110e7929190612a75565b6020604051808303815f875af1158015611103573d5f803e3d5ffd5b505050506040513d601f19601f820116820180604052508101906111279190612ab0565b508173ffffffffffffffffffffffffffffffffffffffff167f34fcbac0073d7c3d388e51312faf357774904998eeb8fca628b9e6f65ee1cbf760065442604051611172929190612adb565b60405180910390a260019050611186611b51565b919050565b611193611b68565b61119c82611c4e565b6111a68282611c59565b5050565b5f6111b3611d77565b7f360894a13ba1a3210667c828492db98dca3e2076cc3735a920a3ca505d382bbc5f1b905090565b60085481565b5f806111eb611dfe565b9050805f015f9054906101000a900460ff1691505090565b61120b611a76565b5f60045f8373ffffffffffffffffffffffffffffffffffffffff1673ffffffffffffffffffffffffffffffffffffffff1681526020019081526020015f205f6101000a81548160ff02191690831515021790555050565b5f61126b611afd565b60045f3373ffffffffffffffffffffffffffffffffffffffff1673ffffffffffffffffffffffffffffffffffffffff1681526020019081526020015f205f9054906101000a900460ff166112f4576040517f08c379a00000000000000000000000000000000000000000000000000000000081526004016112eb9061298f565b60405180910390fd5b816113ce575f60035f8673ffffffffffffffffffffffffffffffffffffffff1673ffffffffffffffffffffffffffffffffffffffff1681526020019081526020015f2054148061138e575060025460035f8673ffffffffffffffffffffffffffffffffffffffff1673ffffffffffffffffffffffffffffffffffffffff1681526020019081526020015f205461138a91906129da565b4210155b6113cd576040517f08c379a00000000000000000000000000000000000000000000000000000000081526004016113c490612a57565b60405180910390fd5b5b4260035f8673ffffffffffffffffffffffffffffffffffffffff1673ffffffffffffffffffffffffffffffffffffffff1681526020019081526020015f20819055505f8361141e57600154611422565b6005545b90505f8573ffffffffffffffffffffffffffffffffffffffff168260405161144990612b97565b5f6040518083038185875af1925050503d805f8114611483576040519150601f19603f3d011682016040523d82523d5f602084013e611488565b606091505b50509050806114cc576040517f08c379a00000000000000000000000000000000000000000000000000000000081526004016114c390612c5d565b60405180910390fd5b8573ffffffffffffffffffffffffffffffffffffffff167f34fcbac0073d7c3d388e51312faf357774904998eeb8fca628b9e6f65ee1cbf760015442604051611516929190612adb565b60405180910390a2809250505061152b611b51565b9392505050565b5f61153b611a76565b815f806101000a81548173ffffffffffffffffffffffffffffffffffffffff021916908373ffffffffffffffffffffffffffffffffffffffff1602179055503373ffffffffffffffffffffffffffffffffffffffff167fdb4e782c6c8f56b4c3b232977c515a35d43d837775bb3caf20358dead594e28483426040516115c2929190612a75565b60405180910390a260019050919050565b5f3373ffffffffffffffffffffffffffffffffffffffff167fcd909ec339185c4598a4096e174308fbdf136d117f230960f873a2f2e81f63af344260405161161c929190612adb565b60405180910390a247905090565b611632611a76565b61163b5f611e25565b565b5f611646611ef6565b90505f815f0160089054906101000a900460ff161590505f825f015f9054906101000a900467ffffffffffffffff1690505f808267ffffffffffffffff1614801561168e5750825b90505f60018367ffffffffffffffff161480156116c157505f3073ffffffffffffffffffffffffffffffffffffffff163b145b9050811580156116cf575080155b15611706576040517ff92ee8a900000000000000000000000000000000000000000000000000000000815260040160405180910390fd5b6001855f015f6101000a81548167ffffffffffffffff021916908367ffffffffffffffff1602179055508315611753576001855f0160086101000a81548160ff0219169083151502179055505b61175c33611f1d565b611764611f31565b875f806101000a81548173ffffffffffffffffffffffffffffffffffffffff021916908373ffffffffffffffffffffffffffffffffffffffff1602179055508660018190555085600281905550831561180b575f855f0160086101000a81548160ff0219169083151502179055507fc7f505b2f371ae2175ee4913f4499e1f2633a7b5936321eed1cdaeb6115181d260016040516118029190612cc7565b60405180910390a15b5050505050505050565b60015481565b5f80611825611f43565b9050805f015f9054906101000a900473ffffffffffffffffffffffffffffffffffffffff1691505090565b611858611a76565b8060068190555050565b60065481565b6040518060400160405280600581526020017f352e302e3000000000000000000000000000000000000000000000000000000081525081565b60055481565b5f47905090565b6009602052805f5260405f205f915090505481565b6118cb611a76565b8060088190555050565b5f60095f8373ffffffffffffffffffffffffffffffffffffffff1673ffffffffffffffffffffffffffffffffffffffff1681526020019081526020015f20549050919050565b611923611a76565b80600a5f6101000a81548173ffffffffffffffffffffffffffffffffffffffff021916908373ffffffffffffffffffffffffffffffffffffffff16021790555050565b5f8054906101000a900473ffffffffffffffffffffffffffffffffffffffff1681565b611991611a76565b5f73ffffffffffffffffffffffffffffffffffffffff168173ffffffffffffffffffffffffffffffffffffffff1603611a01575f6040517f1e4fbdf70000000000000000000000000000000000000000000000000000000081526004016119f8919061286c565b60405180910390fd5b611a0a81611e25565b50565b5f611a16611a76565b816002819055503373ffffffffffffffffffffffffffffffffffffffff167fabe82bf94ac08157c0fd88b25b756bb1a7f0d69ed7bfcdc5cbfb07bcafe5d8248342604051611a65929190612adb565b60405180910390a260019050919050565b611a7e611f6a565b73ffffffffffffffffffffffffffffffffffffffff16611a9c61181b565b73ffffffffffffffffffffffffffffffffffffffff1614611afb57611abf611f6a565b6040517f118cdaa7000000000000000000000000000000000000000000000000000000008152600401611af2919061286c565b60405180910390fd5b565b5f611b06611f71565b90506002815f015403611b45576040517f3ee5aeb500000000000000000000000000000000000000000000000000000000815260040160405180910390fd5b6002815f018190555050565b5f611b5a611f71565b90506001815f018190555050565b7f000000000000000000000000000000000000000000000000000000000000000073ffffffffffffffffffffffffffffffffffffffff163073ffffffffffffffffffffffffffffffffffffffff161480611c1557507f000000000000000000000000000000000000000000000000000000000000000073ffffffffffffffffffffffffffffffffffffffff16611bfc611f98565b73ffffffffffffffffffffffffffffffffffffffff1614155b15611c4c576040517fe07c8dba00000000000000000000000000000000000000000000000000000000815260040160405180910390fd5b565b611c56611a76565b50565b8173ffffffffffffffffffffffffffffffffffffffff166352d1902d6040518163ffffffff1660e01b8152600401602060405180830381865afa925050508015611cc157506040513d601f19601f82011682018060405250810190611cbe9190612d0a565b60015b611d0257816040517f4c9c8ce3000000000000000000000000000000000000000000000000000000008152600401611cf9919061286c565b60405180910390fd5b7f360894a13ba1a3210667c828492db98dca3e2076cc3735a920a3ca505d382bbc5f1b8114611d6857806040517faa1d49a4000000000000000000000000000000000000000000000000000000008152600401611d5f919061273f565b60405180910390fd5b611d728383611feb565b505050565b7f000000000000000000000000000000000000000000000000000000000000000073ffffffffffffffffffffffffffffffffffffffff163073ffffffffffffffffffffffffffffffffffffffff1614611dfc576040517fe07c8dba00000000000000000000000000000000000000000000000000000000815260040160405180910390fd5b565b5f7fcd5ed15c6e187e77e9aee88184c21f4f2182ab5827cb3b7e07fbedcd63f03300905090565b5f611e2e611f43565b90505f815f015f9054906101000a900473ffffffffffffffffffffffffffffffffffffffff16905082825f015f6101000a81548173ffffffffffffffffffffffffffffffffffffffff021916908373ffffffffffffffffffffffffffffffffffffffff1602179055508273ffffffffffffffffffffffffffffffffffffffff168173ffffffffffffffffffffffffffffffffffffffff167f8be0079c531659141344cd1fd0a4f28419497f9722a3daafe3b4186f6b6457e060405160405180910390a3505050565b5f7ff0c57e16840df040f15088dc2f81fe391c3923bec73e23a9662efc9c229c6a00905090565b611f2561205d565b611f2e8161209d565b50565b611f3961205d565b611f41612121565b565b5f7f9016d09d72d40fdae2fd8ceac6b6234c7706214fd39c1cd1e609a0528c199300905090565b5f33905090565b5f7f9b779b17422d0df92223018b32b4d1fa46e071723d6817e2486d003becc55f00905090565b5f611fc47f360894a13ba1a3210667c828492db98dca3e2076cc3735a920a3ca505d382bbc5f1b612151565b5f015f9054906101000a900473ffffffffffffffffffffffffffffffffffffffff16905090565b611ff48261215a565b8173ffffffffffffffffffffffffffffffffffffffff167fbc7cd75a20ee27fd9adebab32041f755214dbc6bffa90cc0225b39da2e5c2d3b60405160405180910390a25f815111156120505761204a8282612223565b50612059565b6120586122a3565b5b5050565b6120656122df565b61209b576040517fd7e6bcf800000000000000000000000000000000000000000000000000000000815260040160405180910390fd5b565b6120a561205d565b5f73ffffffffffffffffffffffffffffffffffffffff168173ffffffffffffffffffffffffffffffffffffffff1603612115575f6040517f1e4fbdf700000000000000000000000000000000000000000000000000000000815260040161210c919061286c565b60405180910390fd5b61211e81611e25565b50565b61212961205d565b5f612132611dfe565b90505f815f015f6101000a81548160ff02191690831515021790555050565b5f819050919050565b5f8173ffffffffffffffffffffffffffffffffffffffff163b036121b557806040517f4c9c8ce30000000000000000000000000000000000000000000000000000000081526004016121ac919061286c565b60405180910390fd5b806121e17f360894a13ba1a3210667c828492db98dca3e2076cc3735a920a3ca505d382bbc5f1b612151565b5f015f6101000a81548173ffffffffffffffffffffffffffffffffffffffff021916908373ffffffffffffffffffffffffffffffffffffffff16021790555050565b60605f808473ffffffffffffffffffffffffffffffffffffffff168460405161224c9190612d6f565b5f60405180830381855af49150503d805f8114612284576040519150601f19603f3d011682016040523d82523d5f602084013e612289565b606091505b50915091506122998583836122fd565b9250505092915050565b5f3411156122dd576040517fb398979f00000000000000000000000000000000000000000000000000000000815260040160405180910390fd5b565b5f6122e8611ef6565b5f0160089054906101000a900460ff16905090565b6060826123125761230d8261238a565b612382565b5f825114801561233857505f8473ffffffffffffffffffffffffffffffffffffffff163b145b1561237a57836040517f9996b315000000000000000000000000000000000000000000000000000000008152600401612371919061286c565b60405180910390fd5b819050612383565b5b9392505050565b5f8151111561239c5780518082602001fd5b6040517fd6bda27500000000000000000000000000000000000000000000000000000000815260040160405180910390fd5b5f604051905090565b5f80fd5b5f80fd5b5f73ffffffffffffffffffffffffffffffffffffffff82169050919050565b5f612408826123df565b9050919050565b612418816123fe565b8114612422575f80fd5b50565b5f813590506124338161240f565b92915050565b5f6020828403121561244e5761244d6123d7565b5b5f61245b84828501612425565b91505092915050565b5f819050919050565b61247681612464565b82525050565b5f60208201905061248f5f83018461246d565b92915050565b5f819050919050565b5f6124b86124b36124ae846123df565b612495565b6123df565b9050919050565b5f6124c98261249e565b9050919050565b5f6124da826124bf565b9050919050565b6124ea816124d0565b82525050565b5f6020820190506125035f8301846124e1565b92915050565b5f8115159050919050565b61251d81612509565b82525050565b5f6020820190506125365f830184612514565b92915050565b61254581612464565b811461254f575f80fd5b50565b5f813590506125608161253c565b92915050565b5f6020828403121561257b5761257a6123d7565b5b5f61258884828501612552565b91505092915050565b5f80fd5b5f80fd5b5f601f19601f8301169050919050565b7f4e487b71000000000000000000000000000000000000000000000000000000005f52604160045260245ffd5b6125df82612599565b810181811067ffffffffffffffff821117156125fe576125fd6125a9565b5b80604052505050565b5f6126106123ce565b905061261c82826125d6565b919050565b5f67ffffffffffffffff82111561263b5761263a6125a9565b5b61264482612599565b9050602081019050919050565b828183375f83830152505050565b5f61267161266c84612621565b612607565b90508281526020810184848401111561268d5761268c612595565b5b612698848285612651565b509392505050565b5f82601f8301126126b4576126b3612591565b5b81356126c484826020860161265f565b91505092915050565b5f80604083850312156126e3576126e26123d7565b5b5f6126f085828601612425565b925050602083013567ffffffffffffffff811115612711576127106123db565b5b61271d858286016126a0565b9150509250929050565b5f819050919050565b61273981612727565b82525050565b5f6020820190506127525f830184612730565b92915050565b5f612762826123df565b9050919050565b61277281612758565b811461277c575f80fd5b50565b5f8135905061278d81612769565b92915050565b61279c81612509565b81146127a6575f80fd5b50565b5f813590506127b781612793565b92915050565b5f805f606084860312156127d4576127d36123d7565b5b5f6127e18682870161277f565b93505060206127f2868287016127a9565b9250506040612803868287016127a9565b9150509250925092565b5f805f60608486031215612824576128236123d7565b5b5f61283186828701612425565b935050602061284286828701612552565b925050604061285386828701612552565b9150509250925092565b612866816123fe565b82525050565b5f60208201905061287f5f83018461285d565b92915050565b5f81519050919050565b5f82825260208201905092915050565b5f5b838110156128bc5780820151818401526020810190506128a1565b5f8484015250505050565b5f6128d182612885565b6128db818561288f565b93506128eb81856020860161289f565b6128f481612599565b840191505092915050565b5f6020820190508181035f83015261291781846128c7565b905092915050565b7f4661756365743a2043616c6c6572206973206e6f74207065726d697373696f6e5f8201527f6564000000000000000000000000000000000000000000000000000000000000602082015250565b5f61297960228361288f565b91506129848261291f565b604082019050919050565b5f6020820190508181035f8301526129a68161296d565b9050919050565b7f4e487b71000000000000000000000000000000000000000000000000000000005f52601160045260245ffd5b5f6129e482612464565b91506129ef83612464565b9250828201905080821115612a0757612a066129ad565b5b92915050565b7f4661756365743a20436c61696d20746f6f20736f6f6e2e0000000000000000005f82015250565b5f612a4160178361288f565b9150612a4c82612a0d565b602082019050919050565b5f6020820190508181035f830152612a6e81612a35565b9050919050565b5f604082019050612a885f83018561285d565b612a95602083018461246d565b9392505050565b5f81519050612aaa81612793565b92915050565b5f60208284031215612ac557612ac46123d7565b5b5f612ad284828501612a9c565b91505092915050565b5f604082019050612aee5f83018561246d565b612afb602083018461246d565b9392505050565b7f4661756365743a20496e73756666696369656e742062616c616e6365000000005f82015250565b5f612b36601c8361288f565b9150612b4182612b02565b602082019050919050565b5f6020820190508181035f830152612b6381612b2a565b9050919050565b5f81905092915050565b50565b5f612b825f83612b6a565b9150612b8d82612b74565b5f82019050919050565b5f612ba182612b77565b9150819050919050565b7f4661756365743a204661696c656420746f2073656e64204574686572000000005f82015250565b5f612bdf601c8361288f565b9150612bea82612bab565b602082019050919050565b5f6020820190508181035f830152612c0c81612bd3565b9050919050565b7f4661696c656420746f2073656e642045746865720000000000000000000000005f82015250565b5f612c4760148361288f565b9150612c5282612c13565b602082019050919050565b5f6020820190508181035f830152612c7481612c3b565b9050919050565b5f819050919050565b5f67ffffffffffffffff82169050919050565b5f612cb1612cac612ca784612c7b565b612495565b612c84565b9050919050565b612cc181612c97565b82525050565b5f602082019050612cda5f830184612cb8565b92915050565b612ce981612727565b8114612cf3575f80fd5b50565b5f81519050612d0481612ce0565b92915050565b5f60208284031215612d1f57612d1e6123d7565b5b5f612d2c84828501612cf6565b91505092915050565b5f81519050919050565b5f612d4982612d35565b612d538185612b6a565b9350612d6381856020860161289f565b80840191505092915050565b5f612d7a8284612d3f565b91508190509291505056fea2646970667358221220410c83719885142320cf36ca71b8fd90ddda53753403b09cf9c7f67cb63e83be64736f6c63430008180033",
    "linkReferences": {},
    "deployedLinkReferences": {}
}